:020000040800F2
:10000000000400209503000805040008050400080A
:1000100005040008050400080504000800000000AD
:1000200000000000000000000000000005040008BF
:10003000050400080000000005040008050400088D
:10004000050400080504000805040008050400086C
:10005000050400080504000805040008050400085C
:10006000050400080504000805040008050400084C
:10007000050400080504000805040008050400083C
:10008000050400080504000805040008050400082C
:10009000050400080504000805040008050400081C
:1000A000050400080504000805040008050400080C
:1000B00005040008050400080504000805040008FC
:1000C00005040008050400080504000805040008EC
:1000D00005040008050400080504000805040008DC
:1000E00005040008050400080504000805040008CC
:1000F00005040008050400080504000805040008BC
:1001000005040008050400080504000805040008AB
:10011000050400080504000805040008050400089B
:10012000050400080504000805040008050400088B
:100130005FF808F180B500AF4FF48053C4F20203BA
:100140004FF48052C4F20202126842F001021A60B7
:100150004FF48052C4F202024FF48053C4F20203FF
:1001600059684FF00003CFF6FF030B4053604FF484
:100170008053C4F202034FF48052C4F202021268A8
:1001800022F0847222F480321A604FF48053C4F259
:1001900002034FF48052C4F20202126822F4802259
:1001A0001A604FF48053C4F202034FF48052C4F239
:1001B0000202526822F4FE025A604FF48053C4F2E5
:1001C00002034FF41F029A6000F008F84FF46D43E9
:1001D000CEF200034FF000629A6080BD80B500AFA0
:1001E00000F002F880BD00BF80B483B000AF4FF0D4
:1001F00000037B604FF000033B604FF48053C4F278
:1002000002034FF48052C4F20202126842F48032B8
:100210001A604FF48053C4F202031B6803F40033E6
:100220003B607B6803F101037B603B68002B03D1DB
:100230007B68B3F5A06FECD14FF48053C4F2020396
:100240001B6803F40033002B03D04FF001033B6025
:1002500002E04FF000033B603B68012B40F09480CC
:100260004FF40053C4F202034FF40052C4F20202EE
:10027000126842F010021A604FF40053C4F20203F5
:100280004FF40052C4F20202126822F003021A6014
:100290004FF40053C4F202034FF40052C4F20202BE
:1002A000126842F002021A604FF48053C4F2020353
:1002B0004FF48052C4F2020252685A604FF48053E5
:1002C000C4F202034FF48052C4F2020252685A6030
:1002D0004FF48053C4F202034FF48052C4F202027E
:1002E000526842F480625A604FF48053C4F20203B1
:1002F0004FF48052C4F20202526822F47C125A6017
:100300004FF48053C4F202034FF48052C4F202024D
:10031000526842F4E8125A604FF48053C4F2020368
:100320004FF48052C4F20202126842F080721A60E6
:1003300000BF4FF48053C4F202031B6803F0007344
:10034000002BF6D04FF48053C4F202034FF48052D6
:10035000C4F20202526822F003025A604FF4805342
:10036000C4F202034FF48052C4F20202526842F017
:1003700002025A6000BF4FF48053C4F202035B686C
:1003800003F00C03082BF6D107F10C07BD4680BC27
:10039000704700BF80B582B000AF40F66433C0F64E
:1003A00000037B6040F20003C2F200033B600BE0FD
:1003B0007B681A683B681A603B6803F104033B6082
:1003C0007B6803F104037B603A6840F20003C2F2E9
:1003D00000039A42ECD3094809494FF000028842D1
:1003E000B8BF40F8042BFFF6FAAFFFF7A3FE00F00A
:1003F00063F907F10807BD4680BD0000000000203A
:100400000000002080B400AFFEE700BF80B489B0D8
:1004100000AF786039604FF00003FB614FF00003DC
:100420003B614FF00003BB614FF00003FB604FF0F6
:1004300000037B614FF00003BB603B68DB7803F097
:100440000F03FB613B68DB7803F01003002B04D043
:100450003B689B78FA691343FB613B681B88DBB2FE
:10046000002B4ED07B681B687B614FF00003BB61A3
:1004700041E0BB694FF0010202FA03F3FB603B6805
:100480001B881A46FB6813403B613A69FB689A4235
:100490002DD1BB694FEA8303FB60FB684FF00F026D
:1004A00002FA03F3BB60BB686FEA03037A69134087
:1004B0007B61FB68FA6902FA03F37A6913437B6193
:1004C0003B68DB78282B07D1BB694FF0010202FAA9
:1004D00003F27B685A610AE03B68DB78482B06D15F
:1004E000BB694FF0010202FA03F27B681A61BB6933
:1004F00003F10103BB61BB69072BBAD97B687A6939
:100500001A603B681B88FF2B53D97B685B687B6153
:100510004FF00003BB6146E0BB6903F108034FF0F5
:10052000010202FA03F3FB603B681B881A46FB6872
:1005300013403B613A69FB689A4230D1BB694FEA8C
:100540008303FB60FB684FF00F0202FA03F3BB600A
:10055000BB686FEA03037A6913407B61FB68FA6941
:1005600002FA03F37A6913437B613B68DB78282B3B
:1005700008D1BB6903F108034FF0010202FA03F24C
:100580007B685A613B68DB78482B08D1BB6903F173
:1005900008034FF0010202FA03F27B681A61BB699B
:1005A00003F10103BB61BB69072BB5D97B687A698D
:1005B0005A6007F12407BD4680BC704780B483B001
:1005C00000AF786013460A467A807B707B78002BF8
:1005D00003D07A887B681A6102E07A887B685A6166
:1005E00007F10C07BD4680BC704700BF80B485B0E2
:1005F00000AF78604EF21002CEF2000279680B462E
:100600004FEA83035B184FEA43035B1853604EF2D3
:100610001003CEF200034FF000029A604EF2100376
:10062000CEF200034FF001021A604EF21003CEF238
:1006300000031B68FB60FB6803F00103002B04D080
:10064000FB6803F48033002BEFD04EF21003CEF2A0
:1006500000034FF000021A604EF21003CEF20003C6
:100660004FF000029A6007F11407BD4680BC704746
:1006700080B487B000AFF8600B467A607B81FB687E
:10068000DA687B895A40FB68DA604FF000037B61CF
:1006900003E07B6903F101037B617A697B689A421D
:1006A000F7D3FB68DA687B895A40FB68DA6007F1A8
:1006B0001C07BD4680BC704780B586B000AF4FF4C4
:1006C00020237B6144F24023C0F20F033B614FF0D3
:1006D00004004FF0010100F00BFA4FF008004FF05A
:1006E000010100F005FA4FF010004FF0010100F099
:1006F000FFF940F6FF733B804FF01003FB704FF0A3
:100700000303BB703B464FF48050C4F2010019460E
:10071000FFF77CFE4FF2E0033B804FF01003FB70CD
:100720004FF00303BB703B464FF44060C4F201003E
:100730001946FFF76BFE41F6FF633B804FF0100355
:10074000FB704FF00303BB703B464FF40060C4F2F4
:1007500001001946FFF75AFE4FF480733B804FF0BB
:100760000303BB704FF01803FB703B464FF400606F
:10077000C4F201001946FFF749FE4FF0070000F0F0
:10078000E1F94FF2E873C1F6FF73FB604FF2F873C3
:10079000C1F6FF73BB604FF60803C1F6FF737B60C1
:1007A0004FF40060C4F201004FF0FE014FF001026F
:1007B000FFF704FF4FF44060C4F201004FF0010165
:1007C0004FF00102FFF7FAFE3869FFF70FFF4FF411
:1007D0000060C4F201004FF0FE014FF00002FFF78D
:1007E000EDFE4FF44060C4F201004FF001014FF004
:1007F0000002FFF7E3FE4FF48050C4F201004FF017
:10080000FF014FF00102FFF7D9FE3869FFF7EEFE56
:100810004FF48050C4F201004FF0FF014FF000028E
:10082000FFF7CCFE4FF48050C4F201004FF470612A
:100830004FF00102FFF7C2FE3869FFF7D7FE4FF411
:100840008050C4F201004FF470614FF00002FFF7D6
:10085000B5FE4FF40060C4F201004FF4F0514FF0C8
:100860000102FFF7ABFE3869FFF7C0FE4FF40060EE
:10087000C4F201004FF4F0514FF00002FFF79EFE6A
:100880004FF44060C4F201004FF470414FF0010298
:10089000FFF794FE3869FFF7A9FE4FF44060C4F2F9
:1008A00001004FF470414FF00002FFF787FE4FF454
:1008B0000060C4F201004FF002017A69FFF7D8FE30
:1008C0004FF40060C4F201004FF004017A69FFF7B1
:1008D000CFFE4FF40060C4F201004FF008017A69C6
:1008E000FFF7C6FE4FF40060C4F201004FF01001A4
:1008F0007A69FFF7BDFE4FF40060C4F201004FF0CB
:1009000020017A69FFF7B4FE4FF40060C4F20100E1
:100910004FF040017A69FFF7ABFE4FF40060C4F27C
:1009200001004FF080017A69FFF7A2FE4FF44060AA
:10093000C4F201004FF001017A69FFF799FE4FF40C
:100940004060C4F201004FF040017A69FFF790FE69
:100950004FF44060C4F201004FF080017A69FFF764
:1009600087FE4FF44060C4F201004FF400517A69F1
:10097000FFF77EFE4FF44060C4F201004FF40041E7
:100980007A69FFF775FE4FF44060C4F201004FF43E
:1009900000517A69FFF76CFE4FF44060C4F2010029
:1009A0004FF480517A69FFF763FE4FF48050C4F230
:1009B00001004FF480717A69FFF75AFE4FF48050BE
:1009C000C4F201004FF400717A69FFF751FE4FF451
:1009D0008050C4F201004FF480617A69FFF748FE4D
:1009E0004FF48050C4F201004FF400617A69FFF7C0
:1009F0003FFE4FF40060C4F201004FF400617A69D9
:100A0000FFF736FE4FF40060C4F201004FF480514E
:100A10007A69FFF72DFE4FF40060C4F201004FF039
:100A200001017A69FFF724FE4FF48050C4F20100FF
:100A30004FF001017A69FFF71BFE4FF48050C4F2BA
:100A400001004FF002017A69FFF712FE4FF4805067
:100A5000C4F201004FF004017A69FFF709FE4FF478
:100A60008050C4F201004FF008017A69FFF700FEE0
:100A70004FF48050C4F201004FF010017A69FFF783
:100A8000F7FD4FF48050C4F201004FF020017A6965
:100A9000FFF7EEFD4FF48050C4F201004FF040012B
:100AA0007A69FFF7E5FD4FF48050C4F201004FF082
:100AB00080017A69FFF7DCFD4FF44060C4F2010069
:100AC0004FF020017A69FFF7D3FD4FF40060C4F2C4
:100AD00001004FF480617A69FFF7CAFD4FF40060AE
:100AE000C4F201004FF400717A69FFF7C1FD57E6C7
:100AF00080B483B000AF78600B46FB70FB78002BAE
:100B00000CD04FF48053C4F202034FF48052C4F26D
:100B1000020291697A680A439A610DE04FF48053AA
:100B2000C4F202034FF48052C4F2020291697A685F
:100B30006FEA02020A409A6107F10C07BD4680BCC9
:100B4000704700BF80B483B000AF0346FB7141F231
:100B50000703C4F20203FA791A7007F10C07BD46C5
:040B600080BC70479E
:0400000508000000EF
:00000001FF
